:020000040000fa
:08000000820204000000000070
:020000040000fa
:040008007c02000076
:020000040000fa
:04000c007c02000072
:020000040000fa
:040010007c0200006e
:020000040000fa
:040014007c0200006a
:020000040000fa
:040018007c02000066
:020000040000fa
:04001c007c02000062
:020000040000fa
:040020007c0200005e
:020000040000fa
:040024007c0200005a
:020000040000fa
:040028007c02000056
:020000040000fa
:04002c007c02000052
:020000040000fa
:040030007c0200004e
:020000040000fa
:040034007c0200004a
:020000040000fa
:040038007c02000046
:020000040000fa
:04003c007c02000042
:020000040000fa
:040040007c0200003e
:020000040000fa
:040044007c0200003a
:020000040000fa
:040048007c02000036
:020000040000fa
:04004c007c02000032
:020000040000fa
:040050007c0200002e
:020000040000fa
:040054007c0200002a
:020000040000fa
:040058007c02000026
:020000040000fa
:04005c007c02000022
:020000040000fa
:040060007c0200001e
:020000040000fa
:040064007c0200001a
:020000040000fa
:040068007c02000016
:020000040000fa
:04006c007c02000012
:020000040000fa
:040070007c0200000e
:020000040000fa
:040074007c0200000a
:020000040000fa
:040078007c02000006
:020000040000fa
:04007c007c02000002
:020000040000fa
:040080007c020000fe
:020000040000fa
:040084007c020000fa
:020000040000fa
:040088007c020000f6
:020000040000fa
:04008c007c020000f2
:020000040000fa
:040090007c020000ee
:020000040000fa
:040094007c020000ea
:020000040000fa
:040098007c020000e6
:020000040000fa
:04009c007c020000e2
:020000040000fa
:0400a0007c020000de
:020000040000fa
:0400a4007c020000da
:020000040000fa
:0400a8007c020000d6
:020000040000fa
:0400ac007c020000d2
:020000040000fa
:0400b0007c020000ce
:020000040000fa
:0400b4007c020000ca
:020000040000fa
:0400b8007c020000c6
:020000040000fa
:0400bc007c020000c2
:020000040000fa
:0400c0007c020000be
:020000040000fa
:0400c4007c020000ba
:020000040000fa
:0400c8007c020000b6
:020000040000fa
:0400cc007c020000b2
:020000040000fa
:0400d0007c020000ae
:020000040000fa
:0400d4007c020000aa
:020000040000fa
:0400d8007c020000a6
:020000040000fa
:0400dc007c020000a2
:020000040000fa
:0400e0007c0200009e
:020000040000fa
:0400e4007c0200009a
:020000040000fa
:0400e8007c02000096
:020000040000fa
:0400ec007c02000092
:020000040000fa
:0400f0007c0200008e
:020000040000fa
:0400f4007c0200008a
:020000040000fa
:0400f8007c02000086
:020000040000fa
:0400fc007c02000082
:020000040000fa
:040100007c0200007d
:020000040000fa
:040104007c02000079
:020000040000fa
:040108007c02000075
:020000040000fa
:04010c007c02000071
:020000040000fa
:040110007c0200006d
:020000040000fa
:040114007c02000069
:020000040000fa
:040118007c02000065
:020000040000fa
:04011c007c02000061
:020000040000fa
:040120007c0200005d
:020000040000fa
:040124007c02000059
:020000040000fa
:040128007c02000055
:020000040000fa
:04012c007c02000051
:020000040000fa
:040130007c0200004d
:020000040000fa
:040134007c02000049
:020000040000fa
:040138007c02000045
:020000040000fa
:04013c007c02000041
:020000040000fa
:040140007c0200003d
:020000040000fa
:040144007c02000039
:020000040000fa
:040148007c02000035
:020000040000fa
:04014c007c02000031
:020000040000fa
:040150007c0200002d
:020000040000fa
:040154007c02000029
:020000040000fa
:040158007c02000025
:020000040000fa
:04015c007c02000021
:020000040000fa
:040160007c0200001d
:020000040000fa
:040164007c02000019
:020000040000fa
:040168007c02000015
:020000040000fa
:04016c007c02000011
:020000040000fa
:040170007c0200000d
:020000040000fa
:040174007c02000009
:020000040000fa
:040178007c02000005
:020000040000fa
:04017c007c02000001
:020000040000fa
:040180007c020000fd
:020000040000fa
:040208007c02000074
:020000040000fa
:04020c007c02000070
:020000040000fa
:040210007c0200006c
:020000040000fa
:040214007c02000068
:020000040000fa
:040218007c02000064
:020000040000fa
:04021c007c02000060
:020000040000fa
:040220007c0200005c
:020000040000fa
:040224007c02000058
:020000040000fa
:040228007c02000054
:020000040000fa
:04022c007c02000050
:020000040000fa
:040230007c0200004c
:020000040000fa
:040234007c02000048
:020000040000fa
:040238007c02000044
:020000040000fa
:04023c007c02000040
:020000040000fa
:040240007c0200003c
:020000040000fa
:040244007c02000038
:020000040000fa
:040248007c02000034
:020000040000fa
:04024c007c02000030
:020000040000fa
:040250007c0200002c
:020000040000fa
:040254007c02000028
:020000040000fa
:040258007c02000024
:020000040000fa
:04025c007c02000020
:020000040000fa
:040260007c0200001c
:020000040000fa
:040264007c02000018
:020000040000fa
:040268007c02000014
:020000040000fa
:04026c007c02000010
:020000040000fa
:040270007c0200000c
:020000040000fa
:040274007c02000008
:020000040000fa
:040278007c02000004
:020000040000fa
:04027c007c02000000
:020000040000fa
:040280007c020000fc
:020000040000fa
:040284007c020000f8
:020000040000fa
:040288007c020000f4
:020000040000fa
:04028c007c020000f0
:020000040000fa
:040290007c020000ec
:020000040000fa
:040294007c020000e8
:020000040000fa
:040298007c020000e4
:020000040000fa
:04029c007c020000e0
:020000040000fa
:0402a0007c020000dc
:020000040000fa
:0402a4007c020000d8
:020000040000fa
:0402a8007c020000d4
:020000040000fa
:0402ac007c020000d0
:020000040000fa
:0402b0007c020000cc
:020000040000fa
:0402b4007c020000c8
:020000040000fa
:0402b8007c020000c4
:020000040000fa
:0402bc007c020000c0
:020000040000fa
:0402c0007c020000bc
:020000040000fa
:0402c4007c020000b8
:020000040000fa
:0402c8007c020000b4
:020000040000fa
:0402cc007c020000b0
:020000040000fa
:0402d0007c020000ac
:020000040000fa
:0402d4007c020000a8
:020000040000fa
:0402d8007c020000a4
:020000040000fa
:0402dc007c020000a0
:020000040000fa
:0402e0007c0200009c
:020000040000fa
:0402e4007c02000098
:020000040000fa
:0402e8007c02000094
:020000040000fa
:0402ec007c02000090
:020000040000fa
:0402f0007c0200008c
:020000040000fa
:0402f4007c02000088
:020000040000fa
:0402f8007c02000084
:020000040000fa
:0402fc007c02000080
:020000040000fa
:040300007c0200007b
:020000040000fa
:040304007c02000077
:020000040000fa
:040308007c02000073
:020000040000fa
:04030c007c0200006f
:020000040000fa
:040310007c0200006b
:020000040000fa
:040314007c02000067
:020000040000fa
:040318007c02000063
:020000040000fa
:04031c007c0200005f
:020000040000fa
:040320007c0200005b
:020000040000fa
:040324007c02000057
:020000040000fa
:040328007c02000053
:020000040000fa
:04032c007c0200004f
:020000040000fa
:040330007c0200004b
:020000040000fa
:040334007c02000047
:020000040000fa
:040338007c02000043
:020000040000fa
:04033c007c0200003f
:020000040000fa
:040340007c0200003b
:020000040000fa
:040344007c02000037
:020000040000fa
:040348007c02000033
:020000040000fa
:04034c007c0200002f
:020000040000fa
:040350007c0200002b
:020000040000fa
:040354007c02000027
:020000040000fa
:040358007c02000023
:020000040000fa
:04035c007c0200001f
:020000040000fa
:040360007c0200001b
:020000040000fa
:040364007c02000017
:020000040000fa
:040368007c02000013
:020000040000fa
:04036c007c0200000f
:020000040000fa
:040370007c0200000b
:020000040000fa
:040374007c02000007
:020000040000fa
:040378007c02000003
:020000040000fa
:04037c007c020000ff
:020000040000fa
:040380007c020000fb
:020000040000fa
:100400008a1f78008b1f7800000006009101880089
:10041000800478000000eb001a003700e2844400fa
:1004200032a0b4009905ba00e284440032a0b400be
:100430009906ba00e284440032a0b4000006eb0042
:10044000476fde00fd07b200636ce10003003a0075
:10045000ebff07000000eb000a003700606ce100d2
:1004600004003a00005deb008b05e900fdff3e0053
:10047000040037006168e100010032000086eb00f3
:100480000b00070019c7ba001905ba000e04e000f6
:1004900003003a000a00e000e0ff3a000000060016
:1004a000fe07b2009e0188008a047800f5ff37003d
:1004b000395dba008b05e9000c003200295dba00f5
:1004c0008b05e900080032000c00e00003003a0050
:1004d000e284440032a0b400f5ff370019ddba0011
:1004e0008b05e900faff3a008904e800e184440042
:1004f00032a0b400000006000040da000000fe0058
:0405000000000500f2
:020000040000fa
:100504006f802000007f220000018800f0ff2f0090
:10051400601988000028ef000428ef000228ef008b
:1005240000002000401688001000200000168800fb
:10053400c422ef00f816020000000000cc22ef00f5
:100544000e17020000000000f81602000000000070
:10055400310020009e1602000000000090170200e7
:1005640000000000310020009e1602000000000080
:100574007a17020000000000310020009e160200dd
:1005840000000000210020009e1602000000000070
:1005940021002000c2002000b81602000000000064
:1005a4000100200082002000b816020000000000b4
:1005b4000100200012002000b81602000000000014
:1005c4000100200062002000b816020000000000b4
:1005d40001002000f2002000b81602000000000014
:1005e400000120002040880085002000c700200072
:1005f4000600200041012000c2012000b8160200bc
:10060400000000006101200012012000b816020061
:10061400000000007101200072012000b8160200e1
:10062400000000007101200022012000b816020021
:10063400000000006101200052012000b8160200f1
:100644000000000061012000e2012000b816020051
:10065400000000006101200032012000b8160200f1
:10066400000000006101200052012000b8160200c1
:10067400000000002101200002012000b816020041
:10068400000000005101200022012000b8160200e1
:100694000000000061012000f2012000b8160200f1
:1006a4000000000061012000d2012000b816020001
:1006b400000000006101200012012000b8160200b1
:1006c4000000000061012000e2012000b8160200d1
:1006d400000000002101200002012000b8160200e1
:1006e400000000002101200002012000b8160200d1
:1006f40000000000c100200002002000b816020023
:10070400000000000e170200000000000e17020097
:10071400000000003101200022012000b816020070
:10072400000000003101200002012000b816020080
:10073400000000003101200012012000b816020060
:10074400000000003101200052012000b816020010
:100754000000000021012000d2012000b816020090
:10076400000000003101200012012000b816020030
:10077400000000003101200032012000b816020000
:10078400000000003101200082012000b8160200a0
:10079400000000003101200052012000b8160200c0
:1007a400000000003101200092012000b816020070
:1007b40000000000281404000000000021012000b3
:1007c40002012000b81602000000000041012000d0
:1007d400c2012000b81602000000000061012000e0
:1007e40012012000b8160200000000007101200070
:1007f40072012000b8160200000000007101200000
:1008040022012000b816020000000000610120004f
:1008140052012000b816020000000000610120000f
:10082400e2012000b816020000000000610120006f
:1008340032012000b816020000000000610120000f
:1008440052012000b816020000000000210120001f
:1008540002012000b816020000000000510120002f
:1008640022012000b81602000000000061012000ef
:10087400f2012000b816020000000000610120000f
:10088400d2012000b816020000000000610120001f
:1008940012012000b81602000000000061012000cf
:1008a400e2012000b816020000000000210120002f
:1008b40002012000b81602000000000021012000ff
:1008c40002012000b816020000000000c100200050
:1008d40002002000b8160200000000000e170200fb
:1008e400000000000e17020000000000210120009b
:1008f40002012000b81602000000000031012000af
:1009040022012000b816020000000000310120007e
:1009140002012000b816020000000000310120008e
:1009240012012000b816020000000000310120006e
:1009340052012000b816020000000000210120002e
:10094400d2012000b816020000000000310120008e
:1009540012012000b816020000000000310120003e
:1009640032012000b816020000000000310120000e
:1009740082012000b81602000000000031012000ae
:1009840052012000b81602000000000031012000ce
:1009940092012000b8160200000000002814040090
:1009a400000000002101200002012000b81602000e
:1009b400000000002101200002012000b8160200fe
:1009c4000000000041012000c2012000b81602000e
:1009d400000000006101200012012000b81602008e
:1009e400000000007101200072012000b81602000e
:1009f400000000007101200022012000b81602004e
:100a0400000000006101200052012000b81602001d
:100a14000000000061012000e2012000b81602007d
:100a2400000000006101200032012000b81602001d
:100a3400000000006101200052012000b8160200ed
:100a4400000000002101200002012000b81602006d
:100a5400000000005101200022012000b81602000d
:100a64000000000061012000f2012000b81602001d
:100a74000000000061012000d2012000b81602002d
:100a8400000000006101200012012000b8160200dd
:100a94000000000061012000e2012000b8160200fd
:100aa400000000002101200002012000b81602000d
:100ab400000000002101200002012000b8160200fd
:100ac40000000000c100200002002000b81602004f
:100ad400000000000e170200000000000e170200c4
:100ae400000000002101200002012000b8160200cd
:100af400000000002101200002012000b8160200bd
:100b0400000000003101200022012000b81602007c
:100b1400000000003101200002012000b81602008c
:100b2400000000003101200012012000b81602006c
:100b3400000000003101200052012000b81602001c
:100b44000000000021012000d2012000b81602009c
:100b5400000000003101200012012000b81602003c
:100b6400000000003101200032012000b81602000c
:100b7400000000003101200082012000b8160200ac
:100b8400000000003101200052012000b8160200cc
:100b9400000000003101200092012000b81602007c
:100ba400000000002814040000000000610120007f
:100bb400e2012000b816020000000000210120001c
:100bc40002012000b81602000000000021012000ec
:100bd40002012000b81602000000000041012000bc
:100be400c2012000b81602000000000061012000cc
:100bf40012012000b816020000000000710120005c
:100c040072012000b81602000000000071012000eb
:100c140022012000b816020000000000610120003b
:100c240052012000b81602000000000061012000fb
:100c3400e2012000b816020000000000610120005b
:100c440032012000b81602000000000061012000fb
:100c540052012000b816020000000000210120000b
:100c640002012000b816020000000000510120001b
:100c740022012000b81602000000000061012000db
:100c8400f2012000b81602000000000061012000fb
:100c9400d2012000b816020000000000610120000b
:100ca40012012000b81602000000000061012000bb
:100cb400e2012000b816020000000000210120001b
:100cc40002012000b81602000000000021012000eb
:100cd40002012000b816020000000000c10020003c
:100ce40002002000b8160200000000000e170200e7
:100cf400000000000e170200000000002101200087
:100d040002012000b81602000000000021012000aa
:100d140002012000b816020000000000210120009a
:100d240002012000b816020000000000310120007a
:100d340022012000b816020000000000310120004a
:100d440002012000b816020000000000310120005a
:100d540012012000b816020000000000310120003a
:100d640052012000b81602000000000021012000fa
:100d7400d2012000b816020000000000310120005a
:100d840012012000b816020000000000310120000a
:100d940032012000b81602000000000031012000da
:100da40082012000b816020000000000310120007a
:100db40052012000b816020000000000310120009a
:100dc40092012000b816020000000000281404005c
:100dd400000000006101200012012000b81602008a
:100de4000000000061012000e2012000b8160200aa
:100df400000000002101200002012000b8160200ba
:100e0400000000002101200002012000b8160200a9
:100e14000000000041012000c2012000b8160200b9
:100e2400000000006101200012012000b816020039
:100e3400000000007101200072012000b8160200b9
:100e4400000000007101200022012000b8160200f9
:100e5400000000006101200052012000b8160200c9
:100e64000000000061012000e2012000b816020029
:100e7400000000006101200032012000b8160200c9
:100e8400000000006101200052012000b816020099
:100e9400000000002101200002012000b816020019
:100ea400000000005101200022012000b8160200b9
:100eb4000000000061012000f2012000b8160200c9
:100ec4000000000061012000d2012000b8160200d9
:100ed400000000006101200012012000b816020089
:100ee4000000000061012000e2012000b8160200a9
:100ef400000000002101200002012000b8160200b9
:100f0400000000002101200002012000b8160200a8
:100f140000000000c100200002002000b8160200fa
:100f2400000000000e170200000000000e1702006f
:100f3400000000002101200002012000b816020078
:100f4400000000002101200002012000b816020068
:100f5400000000002101200002012000b816020058
:100f6400000000002101200002012000b816020048
:100f7400000000003101200022012000b816020008
:100f8400000000003101200002012000b816020018
:100f9400000000003101200012012000b8160200f8
:100fa400000000003101200052012000b8160200a8
:100fb4000000000021012000d2012000b816020028
:100fc400000000003101200012012000b8160200c8
:100fd400000000003101200032012000b816020098
:100fe400000000003101200082012000b816020038
:100ff400000000003101200052012000b816020058
:10100400000000003101200092012000b816020007
:10101400000000002814040000000000610120000a
:10102400d2012000b8160200000000006101200077
:1010340012012000b8160200000000006101200027
:10104400e2012000b8160200000000002101200087
:1010540002012000b8160200000000002101200057
:1010640002012000b8160200000000004101200027
:10107400c2012000b8160200000000006101200037
:1010840012012000b81602000000000071012000c7
:1010940072012000b8160200000000007101200057
:1010a40022012000b81602000000000061012000a7
:1010b40052012000b8160200000000006101200067
:1010c400e2012000b81602000000000061012000c7
:1010d40032012000b8160200000000006101200067
:1010e40052012000b8160200000000002101200077
:1010f40002012000b8160200000000005101200087
:1011040022012000b8160200000000006101200046
:10111400f2012000b8160200000000006101200066
:1011240012012000b8160200000000006101200036
:10113400e2012000b8160200000000002101200096
:1011440002012000b8160200000000002101200066
:1011540002012000b816020000000000c1002000b7
:1011640002002000b8160200000000000e17020062
:10117400000000000e170200000000002101200002
:1011840002012000b8160200000000002101200026
:1011940002012000b8160200000000002101200016
:1011a40002012000b8160200000000002101200006
:1011b40002012000b81602000000000021012000f6
:1011c40002012000b81602000000000031012000d6
:1011d40022012000b81602000000000031012000a6
:1011e40002012000b81602000000000031012000b6
:1011f40012012000b8160200000000003101200096
:1012040052012000b8160200000000002101200055
:10121400d2012000b81602000000000031012000b5
:1012240012012000b8160200000000003101200065
:1012340032012000b8160200000000003101200035
:1012440082012000b81602000000000031012000d5
:1012540052012000b81602000000000031012000f5
:1012640092012000b81602000000000028140400b7
:101274000000000061012000f2012000b816020005
:101284000000000061012000d2012000b816020015
:10129400000000006101200012012000b8160200c5
:1012a4000000000061012000e2012000b8160200e5
:1012b400000000002101200002012000b8160200f5
:1012c400000000002101200002012000b8160200e5
:1012d4000000000041012000c2012000b8160200f5
:1012e400000000006101200012012000b816020075
:1012f400000000007101200072012000b8160200f5
:10130400000000007101200022012000b816020034
:10131400000000006101200052012000b816020004
:101324000000000061012000e2012000b816020064
:10133400000000006101200032012000b816020004
:10134400000000006101200052012000b8160200d4
:10135400000000002101200002012000b816020054
:10136400000000005101200022012000b8160200f4
:10137400000000006101200012012000b8160200e4
:101384000000000061012000e2012000b816020004
:10139400000000002101200002012000b816020014
:1013a400000000002101200002012000b816020004
:1013b40000000000c100200002002000b816020056
:1013c400000000000e170200000000000e170200cb
:1013d400000000002101200002012000b8160200d4
:1013e400000000002101200002012000b8160200c4
:1013f400000000002101200002012000b8160200b4
:10140400000000002101200002012000b8160200a3
:10141400000000002101200002012000b816020093
:10142400000000002101200002012000b816020083
:10143400000000003101200022012000b816020043
:10144400000000003101200002012000b816020053
:10145400000000003101200012012000b816020033
:10146400000000003101200052012000b8160200e3
:101474000000000021012000d2012000b816020063
:10148400000000003101200012012000b816020003
:10149400000000003101200032012000b8160200d3
:1014a400000000003101200082012000b816020073
:1014b400000000003101200052012000b816020093
:1014c400000000003101200092012000b816020043
:1014d4000000000028140400000000005101200056
:1014e40022012000b8160200000000006101200063
:1014f400f2012000b8160200000000006101200083
:10150400d2012000b8160200000000006101200092
:1015140012012000b8160200000000006101200042
:10152400e2012000b81602000000000021012000a2
:1015340002012000b8160200000000002101200072
:1015440002012000b8160200000000004101200042
:10155400c2012000b8160200000000006101200052
:1015640012012000b81602000000000071012000e2
:1015740072012000b8160200000000007101200072
:1015840022012000b81602000000000061012000c2
:1015940052012000b8160200000000006101200082
:1015a400e2012000b81602000000000061012000e2
:1015b40032012000b8160200000000006101200082
:1015c40052012000b8160200000000002101200092
:1015d40002012000b816020000000000c100200033
:1015e40002002000b8160200000000000e170200de
:1015f400000000000e17020000000000310120006e
:1016040092012000b8160200000000002101200011
:1016140002012000b8160200000000002101200091
:1016240002012000b8160200000000002101200081
:1016340002012000b8160200000000002101200071
:1016440002012000b8160200000000002101200061
:1016540002012000b8160200000000002101200051
:1016640002012000b8160200000000003101200031
:1016740022012000b8160200000000003101200001
:1016840002012000b8160200000000003101200011
:1016940012012000b81602000000000031012000f1
:1016a40052012000b81602000000000021012000b1
:1016b400d2012000b8160200000000003101200011
:1016c40012012000b81602000000000031012000c1
:1016d40032012000b8160200000000003101200091
:1016e40082012000b8160200000000003101200031
:1016f40052012000b8160200000000003101200051
:1017040092012000b8160200000000002814040012
:10171400000000002101200002012000b816020090
:10172400000000005101200022012000b816020030
:101734000000000061012000f2012000b816020040
:101744000000000061012000d2012000b816020050
:10175400000000006101200012012000b816020000
:101764000000000061012000e2012000b816020020
:10177400000000002101200002012000b816020030
:10178400000000002101200002012000b816020020
:101794000000000041012000c2012000b816020030
:1017a400000000006101200012012000b8160200b0
:1017b400000000007101200072012000b816020030
:1017c400000000007101200022012000b816020070
:1017d400000000006101200052012000b816020040
:1017e4000000000061012000e2012000b8160200a0
:1017f400000000006101200032012000b816020040
:10180400000000006101200052012000b81602000f
:1018140000000000c100200002002000b8160200f1
:10182400000000000e170200000000000e17020066
:10183400000000003101200052012000b81602000f
:10184400000000003101200092012000b8160200bf
:10185400000000002101200002012000b81602004f
:10186400000000002101200002012000b81602003f
:10187400000000002101200002012000b81602002f
:10188400000000002101200002012000b81602001f
:10189400000000002101200002012000b81602000f
:1018a400000000002101200002012000b8160200ff
:1018b400000000003101200022012000b8160200bf
:1018c400000000003101200002012000b8160200cf
:1018d400000000003101200012012000b8160200af
:1018e400000000003101200052012000b81602005f
:1018f4000000000021012000d2012000b8160200df
:10190400000000003101200012012000b81602007e
:10191400000000003101200032012000b81602004e
:10192400000000003101200082012000b8160200ee
:1019340000000000281404000000000061012000e1
:1019440052012000b816020000000000210120000e
:1019540002012000b816020000000000510120001e
:1019640022012000b81602000000000061012000de
:10197400f2012000b81602000000000061012000fe
:10198400d2012000b816020000000000610120000e
:1019940012012000b81602000000000061012000be
:1019a400e2012000b816020000000000210120001e
:1019b40002012000b81602000000000021012000ee
:1019c40002012000b81602000000000041012000be
:1019d400c2012000b81602000000000061012000ce
:1019e40012012000b816020000000000710120005e
:1019f40072012000b81602000000000071012000ee
:101a040022012000b816020000000000610120003d
:101a140052012000b81602000000000061012000fd
:101a2400e2012000b816020000000000610120005d
:101a340032012000b816020000000000c10020009e
:101a440002002000b8160200000000000e17020079
:101a5400000000000e170200000000003101200009
:101a640082012000b81602000000000031012000ad
:101a740052012000b81602000000000031012000cd
:101a840092012000b816020000000000210120008d
:101a940002012000b816020000000000210120000d
:101aa40002012000b81602000000000021012000fd
:101ab40002012000b81602000000000021012000ed
:101ac40002012000b81602000000000021012000dd
:101ad40002012000b81602000000000021012000cd
:101ae40002012000b81602000000000031012000ad
:101af40022012000b816020000000000310120007d
:101b040002012000b816020000000000310120008c
:101b140012012000b816020000000000310120006c
:101b240052012000b816020000000000210120002c
:101b3400d2012000b816020000000000310120008c
:101b440012012000b816020000000000310120003c
:101b540032012000b816020000000000281404001e
:101b6400000000006101200032012000b8160200cc
:101b7400000000006101200052012000b81602009c
:101b8400000000002101200002012000b81602001c
:101b9400000000005101200022012000b8160200bc
:101ba4000000000061012000f2012000b8160200cc
:101bb4000000000061012000d2012000b8160200dc
:101bc400000000006101200012012000b81602008c
:101bd4000000000061012000e2012000b8160200ac
:101be400000000002101200002012000b8160200bc
:101bf400000000002101200002012000b8160200ac
:101c04000000000041012000c2012000b8160200bb
:101c1400000000006101200012012000b81602003b
:101c2400000000007101200072012000b8160200bb
:101c3400000000007101200022012000b8160200fb
:101c4400000000006101200052012000b8160200cb
:101c54000000000061012000e2012000b81602002b
:101c640000000000c100200002002000b81602009d
:101c7400000000000e170200000000000e17020012
:101c8400000000003101200032012000b8160200db
:101c9400000000003101200082012000b81602007b
:101ca400000000003101200052012000b81602009b
:101cb400000000003101200092012000b81602004b
:101cc400000000002101200002012000b8160200db
:101cd400000000002101200002012000b8160200cb
:101ce400000000002101200002012000b8160200bb
:101cf400000000002101200002012000b8160200ab
:101d0400000000002101200002012000b81602009a
:101d1400000000002101200002012000b81602008a
:101d2400000000003101200022012000b81602004a
:101d3400000000003101200002012000b81602005a
:101d4400000000003101200012012000b81602003a
:101d5400000000003101200052012000b8160200ea
:101d64000000000021012000d2012000b81602006a
:101d7400000000003101200012012000b81602000a
:101d8400000000002814040000000000610120008d
:101d9400e2012000b81602000000000061012000ea
:101da40032012000b816020000000000610120008a
:101db40052012000b816020000000000210120009a
:101dc40002012000b81602000000000051012000aa
:101dd40022012000b816020000000000610120006a
:101de400f2012000b816020000000000610120008a
:101df400d2012000b816020000000000610120009a
:101e040012012000b8160200000000006101200049
:101e1400e2012000b81602000000000021012000a9
:101e240002012000b8160200000000002101200079
:101e340002012000b8160200000000004101200049
:101e4400c2012000b8160200000000006101200059
:101e540012012000b81602000000000071012000e9
:101e640072012000b8160200000000007101200079
:101e740022012000b81602000000000061012000c9
:101e840052012000b816020000000000c10020002a
:101e940002002000b8160200000000000e17020025
:101ea400000000000e1702000000000031012000b5
:101eb40012012000b81602000000000031012000c9
:101ec40032012000b8160200000000003101200099
:101ed40082012000b8160200000000003101200039
:101ee40052012000b8160200000000003101200059
:101ef40092012000b8160200000000002101200019
:101f040002012000b8160200000000002101200098
:101f140002012000b8160200000000002101200088
:101f240002012000b8160200000000002101200078
:101f340002012000b8160200000000002101200068
:101f440002012000b8160200000000002101200058
:101f540002012000b8160200000000003101200038
:101f640022012000b8160200000000003101200008
:101f740002012000b8160200000000003101200018
:101f840012012000b81602000000000031012000f8
:101f940052012000b81602000000000021012000b8
:101fa400d2012000b816020000000000281404002a
:101fb400000000006101200052012000b816020058
:101fc4000000000061012000e2012000b8160200b8
:101fd400000000006101200032012000b816020058
:101fe400000000006101200052012000b816020028
:101ff400000000002101200002012000b8160200a8
:10200400000000005101200022012000b816020047
:102014000000000061012000f2012000b816020057
:102024000000000061012000d2012000b816020067
:10203400000000006101200012012000b816020017
:102044000000000061012000e2012000b816020037
:10205400000000002101200002012000b816020047
:10206400000000002101200002012000b816020037
:102074000000000041012000c2012000b816020047
:10208400000000006101200012012000b8160200c7
:10209400000000007101200072012000b816020047
:1020a400000000007101200022012000b816020087
:1020b40000000000c100200002002000b816020049
:1020c400000000000e170200000000000e170200be
:1020d4000000000021012000d2012000b8160200f7
:1020e400000000003101200012012000b816020097
:1020f400000000003101200032012000b816020067
:10210400000000003101200082012000b816020006
:10211400000000003101200052012000b816020026
:10212400000000003101200092012000b8160200d6
:10213400000000002101200002012000b816020066
:10214400000000002101200002012000b816020056
:10215400000000002101200002012000b816020046
:10216400000000002101200002012000b816020036
:10217400000000002101200002012000b816020026
:10218400000000002101200002012000b816020016
:10219400000000003101200022012000b8160200d6
:1021a400000000003101200002012000b8160200e6
:1021b400000000003101200012012000b8160200c6
:1021c400000000003101200052012000b816020076
:1021d4000000000028140400000000007101200029
:1021e40022012000b8160200000000006101200056
:1021f40052012000b8160200000000006101200016
:10220400e2012000b8160200000000006101200075
:1022140032012000b8160200000000006101200015
:1022240052012000b8160200000000002101200025
:1022340002012000b8160200000000005101200035
:1022440022012000b81602000000000061012000f5
:10225400f2012000b8160200000000006101200015
:10226400d2012000b8160200000000006101200025
:1022740012012000b81602000000000061012000d5
:10228400e2012000b8160200000000002101200035
:1022940002012000b8160200000000002101200005
:1022a40002012000b81602000000000041012000d5
:1022b400c2012000b81602000000000061012000e5
:1022c40012012000b8160200000000007101200075
:1022d40072012000b816020000000000c1002000b6
:1022e40002002000b8160200000000000e170200d1
:1022f400000000000e170200000000003101200061
:1023040052012000b8160200000000002101200044
:10231400d2012000b81602000000000031012000a4
:1023240012012000b8160200000000003101200054
:1023340032012000b8160200000000003101200024
:1023440082012000b81602000000000031012000c4
:1023540052012000b81602000000000031012000e4
:1023640092012000b81602000000000021012000a4
:1023740002012000b8160200000000002101200024
:1023840002012000b8160200000000002101200014
:1023940002012000b8160200000000002101200004
:1023a40002012000b81602000000000021012000f4
:1023b40002012000b81602000000000021012000e4
:1023c40002012000b81602000000000031012000c4
:1023d40022012000b8160200000000003101200094
:1023e40002012000b81602000000000031012000a4
:1023f40012012000b8160200000000002814040096
:10240400000000007101200072012000b8160200d3
:10241400000000007101200022012000b816020013
:10242400000000006101200052012000b8160200e3
:102434000000000061012000e2012000b816020043
:10244400000000006101200032012000b8160200e3
:10245400000000006101200052012000b8160200b3
:10246400000000002101200002012000b816020033
:10247400000000005101200022012000b8160200d3
:102484000000000061012000f2012000b8160200e3
:102494000000000061012000d2012000b8160200f3
:1024a400000000006101200012012000b8160200a3
:1024b4000000000061012000e2012000b8160200c3
:1024c400000000002101200002012000b8160200d3
:1024d400000000002101200002012000b8160200c3
:1024e4000000000041012000c2012000b8160200d3
:1024f400000000006101200012012000b816020053
:1025040000000000c100200002002000b8160200f4
:10251400000000000e170200000000000e17020069
:10252400000000003101200012012000b816020052
:10253400000000003101200052012000b816020002
:102544000000000021012000d2012000b816020082
:10255400000000003101200012012000b816020022
:10256400000000003101200032012000b8160200f2
:10257400000000003101200082012000b816020092
:10258400000000003101200052012000b8160200b2
:10259400000000003101200092012000b816020062
:1025a400000000002101200002012000b8160200f2
:1025b400000000002101200002012000b8160200e2
:1025c400000000002101200002012000b8160200d2
:1025d400000000002101200002012000b8160200c2
:1025e400000000002101200002012000b8160200b2
:1025f400000000002101200002012000b8160200a2
:10260400000000003101200022012000b816020061
:10261400000000003101200002012000b816020071
:10262400000000006101200012012000b816020021
:10263400000000007101200072012000b8160200a1
:10264400000000007101200022012000b8160200e1
:10265400000000006101200052012000b8160200b1
:102664000000000061012000e2012000b816020011
:10267400000000006101200032012000b8160200b1
:10268400000000006101200052012000b816020081
:10269400000000002101200002012000b816020001
:1026a400000000005101200022012000b8160200a1
:1026b4000000000061012000f2012000b8160200b1
:1026c4000000000061012000d2012000b8160200c1
:1026d400000000006101200012012000b816020071
:1026e4000000000061012000e2012000b816020091
:1026f400000000002101200002012000b8160200a1
:10270400000000002101200002012000b816020090
:102714000000000041012000c2012000b8160200a0
:1027240000000000c100200002002000b8160200d2
:10273400000000000e170200000000000e17020047
:10274400000000003101200002012000b816020040
:10275400000000003101200012012000b816020020
:10276400000000003101200052012000b8160200d0
:102774000000000021012000d2012000b816020050
:10278400000000003101200012012000b8160200f0
:10279400000000003101200032012000b8160200c0
:1027a400000000003101200082012000b816020060
:1027b400000000003101200052012000b816020080
:1027c400000000003101200092012000b816020030
:1027d400000000002101200002012000b8160200c0
:1027e400000000002101200002012000b8160200b0
:1027f400000000002101200002012000b8160200a0
:10280400000000002101200002012000b81602008f
:10281400000000002101200002012000b81602007f
:10282400000000002101200002012000b81602006f
:10283400000000003101200022012000b81602002f
:10284400000000002814040000000000c202ae00d2
:102854004214040000000000e1845500fbff3a002c
:102864000100200012002000b81602000000000041
:102874000e170200000000002016040000000000f3
:102884001b00200061034300241702000000000025
:102894000100200012002000b81602000000000011
:1028a4000e17020000000000e004530002003a008a
:1028b400fc02040000000000e104530002003a009e
:1028c400e003040000000000e204530002003a00a8
:1028d400d404040000000000e304530002003a00a2
:1028e400d805040000000000e404530002003a008c
:1028f400ec06040000000000e504530002003a0066
:102904001008040000000000e604530002003a002e
:102914003c09040000000000e704530002003a00f0
:10292400700a040000000000e804530002003a00aa
:102934008c0b040000000000e904530002003a007c
:10294400a00c040000000000ea04530002003a0056
:10295400b40d040000000000eb04530002003a0030
:10296400c80e040000000000ec04530002003a000a
:10297400dc0f040000000000ed04530002003a00e4
:10298400f010040000000000ee04530002003a00be
:102994000412040000000000ef04530002003a0097
:1029a4001413040000000000060020005614040064
:1029b40000000000c100200002002000b816020040
:1029c400000000000e1702000000000000000600d6
:1029d4005101200002012000b8160200000000008e
:1029e4006101200092012000b816020000000000de
:1029f40061012000e2012000b8160200000000007e
:102a04006101200052012000b816020000000000fd
:102a14006101200012012000b8160200000000002d
:102a24007101200002012000b8160200000000001d
:102a34007101200002012000b8160200000000000d
:102a440061012000c2012000b8160200000000004d
:102a54006101200052012000b816020000000000ad
:102a64000000060041012000d2012000b816020037
:102a7400000000006101200052012000b81602008d
:102a8400000000006101200012012000b8160200bd
:102a9400000000007101200042012000b81602006d
:102aa4000000000031012000c2012000b81602001d
:102ab400000000003101200032012000b81602009d
:102ac400000000002101200002012000b8160200cd
:102ad400000000002101200002012000b8160200bd
:102ae400000000002101200002012000b8160200ad
:102af400000000000000060041012000b201200097
:102b0400b8160200000000006101200092012000bc
:102b1400b81602000000000061012000d20120006c
:102b2400b8160200000000006101200032012000fc
:102b3400b81602000000000061012000820120009c
:102b4400b81602000000000061012000920120007c
:102b5400b81602000000000021012000020120003c
:102b6400b81602000000000021012000020120002c
:102b7400b81602000000000021012000020120001c
:102b8400b8160200000000000000060081002000ca
:102b940002002000b8160200000000000e17020018
:102ba400000000000000060041012000d2012000c6
:102bb400b81602000000000061012000120120008c
:102bc400b81602000000000061012000e2012000ac
:102bd400b81602000000000061012000120120006c
:102be400b8160200000000006101200072012000fc
:102bf400b81602000000000061012000520120000c
:102c0400b81602000000000071012000220120001b
:102c1400b81602000000000021012000020120007b
:102c2400b81602000000000021012000020120006b
:102c3400b816020000000000000006000c0020008e
:102c4400dc14020000000000d615020000000000a1
:102c5400c815020000000000ea1402000000000091
:102c64005a17020000000000c202ae007c160400e5
:102c7400000000004016040000000000dc14020004
:102c840000000000ea14020000000000c815020061
:102c94000000000034150200000000005a17020072
:102ca40000000000c202ae00221604000000000072
:102cb4005e16040000000000dc14020000000000a6
:102cc4003415020000000000c815020000000000d6
:102cd4007e150200000000005a17020000000000e8
:102ce400c202ae0040160400000000007c1604007e
:102cf40000000000dc140200000000007e15020049
:102d040000000000c815020000000000d6150200f3
:102d1400000000005a17020000000000c202ae00ca
:102d24005e160400000000002216040000000000eb
:102d34009a1604000000000061168800cca2a800c6
:102d4400f816020000000000f8160200000000005f
:102d5400cca2a900f816020000000000f816020038
:102d640000000000cc22ef0000000600611688007d
:102d7400cca2a8007a170200000000007a17020013
:102d8400000000007a170200000000007a17020019
:102d9400000000007a17020000000000cca2a90085
:102da4007a1702000000000062168800cca2a80076
:102db4007a170200000000007a17020000000000e9
:102dc4007a170200000000007a17020000000000d9
:102dd4007a17020000000000cca2a9007a170200b2
:102de40000000000cc22ef000000060010002000cc
:102df4000040880000a12100104088000228ed0056
:102e0400feff3a000028ed00fcff3a00000000003d
:102e140000000000000006001000200000408800b0
:102e240000e22400104088000228ed00feff3a0072
:102e34000028ed00fcff3a00000000000000000044
:102e440000000600400020000040880000e224004a
:102e5400104088000228ed00feff3a000028ed0033
:102e6400fcff3a0000000000000000000000060023
:102e74001c0020006c170400000000000b00200060
:102e8400060020000c002000010020001200200099
:102e9400b8160200000000000e1702000000000037
:102ea4002417020000000000fc02040000000000df
:102eb400f00020000040880000e224001040880058
:102ec400c202ae003a17040000000000e0045600fd
:102ed400eaff3a000228ed00f9ff3a000028ed006d
:102ee400f7ff3a00000000000000000000000600a8
:102ef40010002000004088001008200010408800c6
:102f04000228ed00feff3a000028ed00fcff3a0025
:102f14000000000000000000000006001000200077
:102f24000040880050552100104088000228ed0020
:102f3400feff3a000028ed00fcff3a00000000000c
:102f4400000000000000000000000000000000007d
:082f540000000000000006006f
:020000040000fa
:102f5c000008000006000000000000000000000057
:020000040000fa
:020000040001f9
:0457f000dfff0000d7
:020000040000fa
:020000040001f9
:0457f400fffc0000b6
:020000040000fa
:020000040001f9
:0457f8009f8100008d
:020000040000fa
:020000040001f9
:0457fc007f3f0000eb
:00000001FF
