:020000040000fa
:080000000002040000000000f2
:020000040000fa
:040008000c030000e5
:020000040000fa
:04000c000c030000e1
:020000040000fa
:040010000c030000dd
:020000040000fa
:040014000c030000d9
:020000040000fa
:040018000c030000d5
:020000040000fa
:04001c000c030000d1
:020000040000fa
:040020000c030000cd
:020000040000fa
:040024000c030000c9
:020000040000fa
:040028000c030000c5
:020000040000fa
:04002c000c030000c1
:020000040000fa
:040030000c030000bd
:020000040000fa
:040034000c030000b9
:020000040000fa
:040038000c030000b5
:020000040000fa
:04003c000c030000b1
:020000040000fa
:040040000c030000ad
:020000040000fa
:040044000c030000a9
:020000040000fa
:040048000c030000a5
:020000040000fa
:04004c000c030000a1
:020000040000fa
:040050000c0300009d
:020000040000fa
:040054000c03000099
:020000040000fa
:040058000c03000095
:020000040000fa
:04005c000c03000091
:020000040000fa
:040060000c0300008d
:020000040000fa
:040064000c03000089
:020000040000fa
:040068000c03000085
:020000040000fa
:04006c000c03000081
:020000040000fa
:040070000c0300007d
:020000040000fa
:04007400c8020000be
:020000040000fa
:040078000c03000075
:020000040000fa
:04007c000c03000071
:020000040000fa
:040080000c0300006d
:020000040000fa
:040084000c03000069
:020000040000fa
:040088000c03000065
:020000040000fa
:04008c000c03000061
:020000040000fa
:040090000c0300005d
:020000040000fa
:040094000c03000059
:020000040000fa
:040098000c03000055
:020000040000fa
:04009c000c03000051
:020000040000fa
:0400a0000c0300004d
:020000040000fa
:0400a4000c03000049
:020000040000fa
:0400a8000c03000045
:020000040000fa
:0400ac000c03000041
:020000040000fa
:0400b0000c0300003d
:020000040000fa
:0400b4000c03000039
:020000040000fa
:0400b8000c03000035
:020000040000fa
:0400bc000c03000031
:020000040000fa
:0400c0000c0300002d
:020000040000fa
:0400c4000c03000029
:020000040000fa
:0400c8000c03000025
:020000040000fa
:0400cc000c03000021
:020000040000fa
:0400d0000c0300001d
:020000040000fa
:0400d4000c03000019
:020000040000fa
:0400d8000c03000015
:020000040000fa
:0400dc000c03000011
:020000040000fa
:0400e0000c0300000d
:020000040000fa
:0400e4000c03000009
:020000040000fa
:0400e8000c03000005
:020000040000fa
:0400ec000c03000001
:020000040000fa
:0400f0000c030000fd
:020000040000fa
:0400f4000c030000f9
:020000040000fa
:0400f8000c030000f5
:020000040000fa
:0400fc000c030000f1
:020000040000fa
:040100000c030000ec
:020000040000fa
:040104000c030000e8
:020000040000fa
:040108000c030000e4
:020000040000fa
:04010c000c030000e0
:020000040000fa
:040110000c030000dc
:020000040000fa
:040114000c030000d8
:020000040000fa
:040118000c030000d4
:020000040000fa
:04011c000c030000d0
:020000040000fa
:040120000c030000cc
:020000040000fa
:040124000c030000c8
:020000040000fa
:040128000c030000c4
:020000040000fa
:04012c000c030000c0
:020000040000fa
:040130000c030000bc
:020000040000fa
:040134000c030000b8
:020000040000fa
:040138000c030000b4
:020000040000fa
:04013c000c030000b0
:020000040000fa
:040140000c030000ac
:020000040000fa
:040144000c030000a8
:020000040000fa
:040148000c030000a4
:020000040000fa
:04014c000c030000a0
:020000040000fa
:040150000c0300009c
:020000040000fa
:040154000c03000098
:020000040000fa
:040158000c03000094
:020000040000fa
:04015c000c03000090
:020000040000fa
:040160000c0300008c
:020000040000fa
:040164000c03000088
:020000040000fa
:040168000c03000084
:020000040000fa
:04016c000c03000080
:020000040000fa
:040170000c0300007c
:020000040000fa
:040174000c03000078
:020000040000fa
:040178000c03000074
:020000040000fa
:04017c000c03000070
:020000040000fa
:040180000c0300006c
:020000040000fa
:040208000c030000e3
:020000040000fa
:04020c000c030000df
:020000040000fa
:040210000c030000db
:020000040000fa
:040214000c030000d7
:020000040000fa
:040218000c030000d3
:020000040000fa
:04021c000c030000cf
:020000040000fa
:040220000c030000cb
:020000040000fa
:040224000c030000c7
:020000040000fa
:040228000c030000c3
:020000040000fa
:04022c000c030000bf
:020000040000fa
:040230000c030000bb
:020000040000fa
:040234000c030000b7
:020000040000fa
:040238000c030000b3
:020000040000fa
:04023c000c030000af
:020000040000fa
:040240000c030000ab
:020000040000fa
:040244000c030000a7
:020000040000fa
:040248000c030000a3
:020000040000fa
:04024c000c0300009f
:020000040000fa
:040250000c0300009b
:020000040000fa
:040254000c03000097
:020000040000fa
:040258000c03000093
:020000040000fa
:04025c000c0300008f
:020000040000fa
:040260000c0300008b
:020000040000fa
:040264000c03000087
:020000040000fa
:040268000c03000083
:020000040000fa
:04026c000c0300007f
:020000040000fa
:040270000c0300007b
:020000040000fa
:04027400c8020000bc
:020000040000fa
:040278000c03000073
:020000040000fa
:04027c000c0300006f
:020000040000fa
:040280000c0300006b
:020000040000fa
:040284000c03000067
:020000040000fa
:040288000c03000063
:020000040000fa
:04028c000c0300005f
:020000040000fa
:040290000c0300005b
:020000040000fa
:040294000c03000057
:020000040000fa
:040298000c03000053
:020000040000fa
:04029c000c0300004f
:020000040000fa
:0402a0000c0300004b
:020000040000fa
:0402a4000c03000047
:020000040000fa
:0402a8000c03000043
:020000040000fa
:0402ac000c0300003f
:020000040000fa
:0402b0000c0300003b
:020000040000fa
:0402b4000c03000037
:020000040000fa
:0402b8000c03000033
:020000040000fa
:0402bc000c0300002f
:020000040000fa
:0402c0000c0300002b
:020000040000fa
:0402c4000c03000027
:020000040000fa
:0402c8000c03000023
:020000040000fa
:0402cc000c0300001f
:020000040000fa
:0402d0000c0300001b
:020000040000fa
:0402d4000c03000017
:020000040000fa
:0402d8000c03000013
:020000040000fa
:0402dc000c0300000f
:020000040000fa
:0402e0000c0300000b
:020000040000fa
:0402e4000c03000007
:020000040000fa
:0402e8000c03000003
:020000040000fa
:0402ec000c030000ff
:020000040000fa
:0402f0000c030000fb
:020000040000fa
:0402f4000c030000f7
:020000040000fa
:0402f8000c030000f3
:020000040000fa
:0402fc000c030000ef
:020000040000fa
:040300000c030000ea
:020000040000fa
:040304000c030000e6
:020000040000fa
:040308000c030000e2
:020000040000fa
:04030c000c030000de
:020000040000fa
:040310000c030000da
:020000040000fa
:040314000c030000d6
:020000040000fa
:040318000c030000d2
:020000040000fa
:04031c000c030000ce
:020000040000fa
:040320000c030000ca
:020000040000fa
:040324000c030000c6
:020000040000fa
:040328000c030000c2
:020000040000fa
:04032c000c030000be
:020000040000fa
:040330000c030000ba
:020000040000fa
:040334000c030000b6
:020000040000fa
:040338000c030000b2
:020000040000fa
:04033c000c030000ae
:020000040000fa
:040340000c030000aa
:020000040000fa
:040344000c030000a6
:020000040000fa
:040348000c030000a2
:020000040000fa
:04034c000c0300009e
:020000040000fa
:040350000c0300009a
:020000040000fa
:040354000c03000096
:020000040000fa
:040358000c03000092
:020000040000fa
:04035c000c0300008e
:020000040000fa
:040360000c0300008a
:020000040000fa
:040364000c03000086
:020000040000fa
:040368000c03000082
:020000040000fa
:04036c000c0300007e
:020000040000fa
:040370000c0300007a
:020000040000fa
:040374000c03000076
:020000040000fa
:040378000c03000072
:020000040000fa
:04037c000c0300006e
:020000040000fa
:040380000c0300006a
:020000040000fa
:100400002f8020000e7f22000e01880000000000d7
:10041000000020000000e000020032000001200087
:1004200020028800140007007d0007000000e000a3
:1004300003003a008037200001002000020037004e
:100440000000200001002000810f70000100320038
:1004500014000700000020000000e000020032004d
:100460000000020000000000120302000000000073
:100470000040da000000fe004440a9000000200017
:100480000000e0000300320000002000a00188000e
:100490004440a800000006008a1f78008b1f7800e7
:1004a0000000060091018800800478000000eb0045
:1004b0001a003700e284440032a0b4009905ba0063
:1004c000e284440032a0b4009906ba00e2844400f9
:1004d00032a0b4000006eb00476fde00fd07b2005b
:1004e000636ce10003003a00ebff07000000eb0043
:1004f0000a003700606ce10004003a00005deb0088
:100500008b05e900fdff3e00040037006168e10053
:10051000010032000086eb000b00070019c7ba008b
:100520001905ba000e04e00003003a000a00e000da
:10053000e0ff3a0000000600fe07b2009e018800be
:100540008a047800f5ff3700395dba008b05e900b1
:100550000c003200295dba008b05e900080032006a
:100560000c00e00003003a00e284440032a0b40032
:10057000f5ff370019ddba008b05e900faff3a00f4
:100580008904e800e184440032a0b40000000600c1
:10059000809fbe003400f80000002000a001880009
:1005a0000200fa000000eb00000f78001016800037
:1005b000640060000000e00012003a000100370013
:1005c0001e0fe80010168000640060000000e000cc
:1005d00004003a00300620009e007800808f500012
:1005e000f7ff3400400620009e007800808f500006
:1005f00003003a001000200000408800010037008e
:100600000028ef008660a9000080fa003400f9009d
:100610004f00be00004006000040da000000fe006f
:0406200000000500d1
:020000040000fa
:100624000000fa000080eb0060198800f000200050
:100634000016880080e02f00401688000080eb0040
:100644006016880040038000c000b30040038800a7
:100654005103800000002600010070005003880050
:1006640000038000c000b300000388001103800071
:100674000000260001007000100388009660a800a6
:100684008660a900cc42a9000100370000000000e8
:10069400004080000000e000fcff32000200070080
:1006a4000028ef00faff37000000fa00601680000f
:1006b4007000600000f0a7000000ea000000e900fc
:1006c4004f00de00004078000080fb006100600005
:1006d4004400dd00611680000140a10001007000ab
:0c06e400601688000080fa00000006008c
:020000040000fa
:1006f00000080000020000000000000000000000f0
:020000040000fa
:020000040001f9
:0457f400fffc0000b6
:020000040000fa
:020000040001f9
:0457f8009f8100008d
:020000040000fa
:020000040001f9
:0457fc007f3f0000eb
:00000001FF
