:020000040000fa
:080000000002040000000000f2
:020000040000fa
:04000800fc040000f4
:020000040000fa
:04000c00fc040000f0
:020000040000fa
:04001000fc040000ec
:020000040000fa
:04001400fc040000e8
:020000040000fa
:04001800fc040000e4
:020000040000fa
:04001c00fc040000e0
:020000040000fa
:04002000fc040000dc
:020000040000fa
:04002400fc040000d8
:020000040000fa
:04002800fc040000d4
:020000040000fa
:04002c00fc040000d0
:020000040000fa
:04003000fc040000cc
:020000040000fa
:04003400fc040000c8
:020000040000fa
:04003800fc040000c4
:020000040000fa
:04003c00fc040000c0
:020000040000fa
:04004000fc040000bc
:020000040000fa
:04004400fc040000b8
:020000040000fa
:04004800fc040000b4
:020000040000fa
:04004c00fc040000b0
:020000040000fa
:04005000fc040000ac
:020000040000fa
:04005400fc040000a8
:020000040000fa
:04005800fc040000a4
:020000040000fa
:04005c00fc040000a0
:020000040000fa
:04006000fc0400009c
:020000040000fa
:04006400fc04000098
:020000040000fa
:04006800fc04000094
:020000040000fa
:04006c00fc04000090
:020000040000fa
:04007000fc0400008c
:020000040000fa
:04007400c8020000be
:020000040000fa
:04007800fc04000084
:020000040000fa
:04007c00fc04000080
:020000040000fa
:04008000fc0400007c
:020000040000fa
:04008400fc04000078
:020000040000fa
:04008800fc04000074
:020000040000fa
:04008c00fc04000070
:020000040000fa
:04009000fc0400006c
:020000040000fa
:04009400fc04000068
:020000040000fa
:04009800fc04000064
:020000040000fa
:04009c00fc04000060
:020000040000fa
:0400a000fc0400005c
:020000040000fa
:0400a400fc04000058
:020000040000fa
:0400a800fc04000054
:020000040000fa
:0400ac00fc04000050
:020000040000fa
:0400b000fc0400004c
:020000040000fa
:0400b400fc04000048
:020000040000fa
:0400b800fc04000044
:020000040000fa
:0400bc00fc04000040
:020000040000fa
:0400c000fc0400003c
:020000040000fa
:0400c400fc04000038
:020000040000fa
:0400c800fc04000034
:020000040000fa
:0400cc00fc04000030
:020000040000fa
:0400d000fc0400002c
:020000040000fa
:0400d400fc04000028
:020000040000fa
:0400d800fc04000024
:020000040000fa
:0400dc00fc04000020
:020000040000fa
:0400e000fc0400001c
:020000040000fa
:0400e400fc04000018
:020000040000fa
:0400e800fc04000014
:020000040000fa
:0400ec00fc04000010
:020000040000fa
:0400f000fc0400000c
:020000040000fa
:0400f400fc04000008
:020000040000fa
:0400f800fc04000004
:020000040000fa
:0400fc00fc04000000
:020000040000fa
:04010000fc040000fb
:020000040000fa
:04010400fc040000f7
:020000040000fa
:04010800fc040000f3
:020000040000fa
:04010c00fc040000ef
:020000040000fa
:04011000fc040000eb
:020000040000fa
:04011400fc040000e7
:020000040000fa
:04011800fc040000e3
:020000040000fa
:04011c00fc040000df
:020000040000fa
:04012000fc040000db
:020000040000fa
:04012400fc040000d7
:020000040000fa
:04012800fc040000d3
:020000040000fa
:04012c00fc040000cf
:020000040000fa
:04013000fc040000cb
:020000040000fa
:04013400fc040000c7
:020000040000fa
:04013800fc040000c3
:020000040000fa
:04013c00fc040000bf
:020000040000fa
:04014000fc040000bb
:020000040000fa
:04014400fc040000b7
:020000040000fa
:04014800fc040000b3
:020000040000fa
:04014c00fc040000af
:020000040000fa
:04015000fc040000ab
:020000040000fa
:04015400fc040000a7
:020000040000fa
:04015800fc040000a3
:020000040000fa
:04015c00fc0400009f
:020000040000fa
:04016000fc0400009b
:020000040000fa
:04016400fc04000097
:020000040000fa
:04016800fc04000093
:020000040000fa
:04016c00fc0400008f
:020000040000fa
:04017000fc0400008b
:020000040000fa
:04017400fc04000087
:020000040000fa
:04017800fc04000083
:020000040000fa
:04017c00fc0400007f
:020000040000fa
:04018000fc0400007b
:020000040000fa
:04020800fc040000f2
:020000040000fa
:04020c00fc040000ee
:020000040000fa
:04021000fc040000ea
:020000040000fa
:04021400fc040000e6
:020000040000fa
:04021800fc040000e2
:020000040000fa
:04021c00fc040000de
:020000040000fa
:04022000fc040000da
:020000040000fa
:04022400fc040000d6
:020000040000fa
:04022800fc040000d2
:020000040000fa
:04022c00fc040000ce
:020000040000fa
:04023000fc040000ca
:020000040000fa
:04023400fc040000c6
:020000040000fa
:04023800fc040000c2
:020000040000fa
:04023c00fc040000be
:020000040000fa
:04024000fc040000ba
:020000040000fa
:04024400fc040000b6
:020000040000fa
:04024800fc040000b2
:020000040000fa
:04024c00fc040000ae
:020000040000fa
:04025000fc040000aa
:020000040000fa
:04025400fc040000a6
:020000040000fa
:04025800fc040000a2
:020000040000fa
:04025c00fc0400009e
:020000040000fa
:04026000fc0400009a
:020000040000fa
:04026400fc04000096
:020000040000fa
:04026800fc04000092
:020000040000fa
:04026c00fc0400008e
:020000040000fa
:04027000fc0400008a
:020000040000fa
:04027400c8020000bc
:020000040000fa
:04027800fc04000082
:020000040000fa
:04027c00fc0400007e
:020000040000fa
:04028000fc0400007a
:020000040000fa
:04028400fc04000076
:020000040000fa
:04028800fc04000072
:020000040000fa
:04028c00fc0400006e
:020000040000fa
:04029000fc0400006a
:020000040000fa
:04029400fc04000066
:020000040000fa
:04029800fc04000062
:020000040000fa
:04029c00fc0400005e
:020000040000fa
:0402a000fc0400005a
:020000040000fa
:0402a400fc04000056
:020000040000fa
:0402a800fc04000052
:020000040000fa
:0402ac00fc0400004e
:020000040000fa
:0402b000fc0400004a
:020000040000fa
:0402b400fc04000046
:020000040000fa
:0402b800fc04000042
:020000040000fa
:0402bc00fc0400003e
:020000040000fa
:0402c000fc0400003a
:020000040000fa
:0402c400fc04000036
:020000040000fa
:0402c800fc04000032
:020000040000fa
:0402cc00fc0400002e
:020000040000fa
:0402d000fc0400002a
:020000040000fa
:0402d400fc04000026
:020000040000fa
:0402d800fc04000022
:020000040000fa
:0402dc00fc0400001e
:020000040000fa
:0402e000fc0400001a
:020000040000fa
:0402e400fc04000016
:020000040000fa
:0402e800fc04000012
:020000040000fa
:0402ec00fc0400000e
:020000040000fa
:0402f000fc0400000a
:020000040000fa
:0402f400fc04000006
:020000040000fa
:0402f800fc04000002
:020000040000fa
:0402fc00fc040000fe
:020000040000fa
:04030000fc040000f9
:020000040000fa
:04030400fc040000f5
:020000040000fa
:04030800fc040000f1
:020000040000fa
:04030c00fc040000ed
:020000040000fa
:04031000fc040000e9
:020000040000fa
:04031400fc040000e5
:020000040000fa
:04031800fc040000e1
:020000040000fa
:04031c00fc040000dd
:020000040000fa
:04032000fc040000d9
:020000040000fa
:04032400fc040000d5
:020000040000fa
:04032800fc040000d1
:020000040000fa
:04032c00fc040000cd
:020000040000fa
:04033000fc040000c9
:020000040000fa
:04033400fc040000c5
:020000040000fa
:04033800fc040000c1
:020000040000fa
:04033c00fc040000bd
:020000040000fa
:04034000fc040000b9
:020000040000fa
:04034400fc040000b5
:020000040000fa
:04034800fc040000b1
:020000040000fa
:04034c00fc040000ad
:020000040000fa
:04035000fc040000a9
:020000040000fa
:04035400fc040000a5
:020000040000fa
:04035800fc040000a1
:020000040000fa
:04035c00fc0400009d
:020000040000fa
:04036000fc04000099
:020000040000fa
:04036400fc04000095
:020000040000fa
:04036800fc04000091
:020000040000fa
:04036c00fc0400008d
:020000040000fa
:04037000fc04000089
:020000040000fa
:04037400fc04000085
:020000040000fa
:04037800fc04000081
:020000040000fa
:04037c00fc0400007d
:020000040000fa
:04038000fc04000079
:020000040000fa
:10040000af8120000e7f22000e0188000000000056
:10041000000020000000e000020032000001200087
:100420002002880014000700750107000000e000aa
:1004300003003a00e06920000100200002003700bc
:100440000000200001002000810f70000100320038
:1004500014000700000020000000e000020032004d
:100460000000020000000000020502000000000081
:100470000040da000000fe004440a9000000200017
:100480000000e0000300320000002000a00188000e
:100490004440a800000006008a1f78008b1f7800e7
:1004a0000000060091018800800478000000eb0045
:1004b0001a003700e284440032a0b4009905ba0063
:1004c000e284440032a0b4009906ba00e2844400f9
:1004d00032a0b4000006eb00476fde00fd07b2005b
:1004e000636ce10003003a00ebff07000000eb0043
:1004f0000a003700606ce10004003a00005deb0088
:100500008b05e900fdff3e00040037006168e10053
:10051000010032000086eb000b00070019c7ba008b
:100520001905ba000e04e00003003a000a00e000da
:10053000e0ff3a0000000600fe07b2009e018800be
:100540008a047800f5ff3700395dba008b05e900b1
:100550000c003200295dba008b05e900080032006a
:100560000c00e00003003a00e284440032a0b40032
:10057000f5ff370019ddba008b05e900faff3a00f4
:100580008904e800e184440032a0b40000000600c1
:10059000809fbe003400f80000002000a001880009
:1005a0000200fa000000eb00000f78001016800037
:1005b000610060000000e00040003a0001003700e8
:1005c0001e0fe80010168000610060000000e000cf
:1005d00004003a00703e20009e007800808f50009a
:1005e000f7ff3400803e20009e007800808f50008e
:1005f0002e003a00cc02a800cc22a800cc42a900d0
:1006000010168000610060000000e00007003a0062
:1006100010002000204088008660a900cc02a900bc
:10062000cc22a900cc42a900ef003700cc02a900df
:10063000cc22a800cc42a800101680006100600007
:100640000000e00007003a00100020000040880091
:100650008660a900cc02a900cc22a900cc42a90046
:10066000e1003700cc02a800cc22a900cc42a800af
:1006700010168000610060000000e00007003a00f2
:1006800010002000104088008660a900cc02a9005c
:10069000cc22a900cc42a900d3003700cc02a9008b
:1006a000cc22a900cc42a900cf0037000028ef00df
:1006b0000228ef000428ef00cb003700101680005e
:1006c000620060000000e00040003a0001003700d6
:1006d0001e0fe80010168000620060000000e000bd
:1006e00004003a00703e20009e007800808f500089
:1006f000f7ff3400803e20009e007800808f50007d
:100700002e003a00cc02a800cc22a800cc42a900be
:1007100010168000620060000000e00007003a0050
:1007200010002000504088008660a900cc02a9007b
:10073000cc22a900cc42a900ab003700cc02a90012
:10074000cc22a800cc42a8001016800062006000f5
:100750000000e00007003a00100020003040880050
:100760008660a900cc02a900cc22a900cc42a90035
:100770009d003700cc02a800cc22a900cc42a800e2
:1007800010168000620060000000e00007003a00e0
:1007900010002000404088008660a900cc02a9001b
:1007a000cc22a900cc42a9008f003700cc02a900be
:1007b000cc22a900cc42a9008b0037000028ef0012
:1007c0000228ef000428ef00870037001016800091
:1007d000640060000000e00040003a0001003700c3
:1007e0001e0fe80010168000640060000000e000aa
:1007f00004003a00703e20009e007800808f500078
:10080000f7ff3400803e20009e007800808f50006b
:100810002e003a00cc02a800cc22a800cc42a900ad
:1008200010168000640060000000e00007003a003d
:1008300010002000804088008660a900cc02a9003a
:10084000cc22a900cc42a90067003700cc02a90045
:10085000cc22a800cc42a8001016800064006000e2
:100860000000e00007003a0010002000604088000f
:100870008660a900cc02a900cc22a900cc42a90024
:1008800059003700cc02a800cc22a900cc42a80015
:1008900010168000640060000000e00007003a00cd
:1008a00010002000704088008660a900cc02a900da
:1008b000cc22a900cc42a9004b003700cc02a900f1
:1008c000cc22a900cc42a900470037000028ef0045
:1008d0000228ef000428ef004300370010168000c4
:1008e000680060000000e0003f003a0001003700af
:1008f0001e0fe80010168000680060000000e00095
:1009000004003a00703e20009e007800808f500066
:10091000f7ff3400803e20009e007800808f50005a
:100920002e003a00cc02a800cc22a800cc42a9009c
:1009300010168000680060000000e00007003a0028
:1009400010002000b04088008660a900cc02a900f9
:10095000cc22a900cc42a90023003700cc02a90078
:10096000cc22a800cc42a8001016800068006000cd
:100970000000e00007003a001000200090408800ce
:100980008660a900cc02a900cc22a900cc42a90013
:1009900015003700cc02a800cc22a900cc42a80048
:1009a00010168000680060000000e00007003a00b8
:1009b00010002000a04088008660a900cc02a90099
:1009c000cc22a900cc42a90007003700cc02a90024
:1009d000cc22a900cc42a900030037000028ef0078
:1009e0000228ef000428ef000080fa003400f9002c
:1009f0004f00be00004006000040da000000fe008c
:040a000000000500ed
:020000040000fa
:100a04000000fa000080eb0060198800f00020006c
:100a14000016880080e02f00401688000080eb005c
:100a24006016880040038000c000b30040038800c3
:100a3400510380000000260001007000500388006c
:100a440000038000c000b30000038800110380008d
:100a54000000260001007000100388009660a800c2
:100a64008660a900cc02a900cc22a900cc42a9002e
:100a74000100370000000000004080000000e0009a
:100a84000f003200601680007000600000f0a700c4
:100a94000000ea000000e9004f00de00004078009a
:100aa4000080fb00610060004400dd0061168000ee
:100ab4000140a10001007000601688003a000700a0
:100ac400304080000000e000100032006116800019
:100ad400000220000080600000f0a7000000ea008f
:100ae4000000e9004f00de00004078000080fb00b9
:100af400610060004500dd00611680000150a10026
:100b04000100700060168800270007006040800024
:100b14000000e00010003200611680000008200090
:100b24000080600000f0a7000000ea000000e90077
:100b34004f00de00004078000080fb006100600090
:100b44004700dd00611680000170a1000100700003
:100b54006016880014000700904080000000e00048
:100b6400c4ff320061168000001020000080600085
:100b740000f0a7000000ea000000e9004f00de00da
:100b8400004078000080fb00610060004800dd0048
:100b9400611680000180a1000100700060168800c9
:100ba40001000700b4ff37000000fa000028ef003e
:100bb4000628ef000c28ef001228ef000228ef00af
:100bc4000828ef000e28ef001428ef000428ef0097
:100bd4000a28ef001028ef001628ef000080fa0022
:100be400000006000000fa00cc02a900cc22a900f3
:100bf400cc42a9000080fa00000006000000fa00c0
:100c0400601680007000600000f0a7000000ea0099
:100c14000000e9004f00de00004078000080fb0087
:100c2400610060004400dd00611680000140a10005
:100c34000100700060168800611680000002200028
:100c44000080600000f0a7000000ea000000e90056
:100c54004f00de00004078000080fb00610060006f
:100c64004500dd00611680000150a1000100700004
:100c74006016880061168000000820000080600073
:100c840000f0a7000000ea000000e9004f00de00c9
:100c9400004078000080fb00610060004700dd0038
:100ca400611680000170a1000100700060168800c8
:100cb40061168000001020000080600000f0a70092
:100cc4000000ea000000e9004f00de000040780068
:100cd4000080fb00610060004800dd0061168000b8
:100ce4000180a10001007000601688000080fa00f5
:100cf400000006000000fa0060168000700060002a
:100d040000f0a7000000ea000000e9004f00de0048
:100d1400004078000080fb00610060004400dd00ba
:100d2400611680000140a100010070006016880077
:080d34000080fa000000060037
:020000040000fa
:100d3c00000800001a000000000000000000000085
:020000040000fa
:020000040001f9
:0457f400fffc0000b6
:020000040000fa
:020000040001f9
:0457f8009f8100008d
:020000040000fa
:020000040001f9
:0457fc007f3f0000eb
:00000001FF
