:020000040000fa
:080000000002040000000000f2
:020000040000fa
:04000800de02000014
:020000040000fa
:04000c00de02000010
:020000040000fa
:04001000de0200000c
:020000040000fa
:04001400de02000008
:020000040000fa
:04001800de02000004
:020000040000fa
:04001c00de02000000
:020000040000fa
:04002000de020000fc
:020000040000fa
:04002400de020000f8
:020000040000fa
:04002800de020000f4
:020000040000fa
:04002c00de020000f0
:020000040000fa
:04003000de020000ec
:020000040000fa
:04003400de020000e8
:020000040000fa
:04003800de020000e4
:020000040000fa
:04003c00de020000e0
:020000040000fa
:04004000de020000dc
:020000040000fa
:04004400de020000d8
:020000040000fa
:04004800de020000d4
:020000040000fa
:04004c00de020000d0
:020000040000fa
:04005000de020000cc
:020000040000fa
:04005400de020000c8
:020000040000fa
:04005800de020000c4
:020000040000fa
:04005c00c8020000d6
:020000040000fa
:04006000de020000bc
:020000040000fa
:04006400de020000b8
:020000040000fa
:04006800de020000b4
:020000040000fa
:04006c00de020000b0
:020000040000fa
:04007000de020000ac
:020000040000fa
:04007400de020000a8
:020000040000fa
:04007800de020000a4
:020000040000fa
:04007c00de020000a0
:020000040000fa
:04008000de0200009c
:020000040000fa
:04008400de02000098
:020000040000fa
:04008800de02000094
:020000040000fa
:04008c00de02000090
:020000040000fa
:04009000de0200008c
:020000040000fa
:04009400de02000088
:020000040000fa
:04009800de02000084
:020000040000fa
:04009c00de02000080
:020000040000fa
:0400a000de0200007c
:020000040000fa
:0400a400de02000078
:020000040000fa
:0400a800de02000074
:020000040000fa
:0400ac00de02000070
:020000040000fa
:0400b000de0200006c
:020000040000fa
:0400b400de02000068
:020000040000fa
:0400b800de02000064
:020000040000fa
:0400bc00de02000060
:020000040000fa
:0400c000de0200005c
:020000040000fa
:0400c400de02000058
:020000040000fa
:0400c800de02000054
:020000040000fa
:0400cc00de02000050
:020000040000fa
:0400d000de0200004c
:020000040000fa
:0400d400de02000048
:020000040000fa
:0400d800de02000044
:020000040000fa
:0400dc00de02000040
:020000040000fa
:0400e000de0200003c
:020000040000fa
:0400e400de02000038
:020000040000fa
:0400e800de02000034
:020000040000fa
:0400ec00de02000030
:020000040000fa
:0400f000de0200002c
:020000040000fa
:0400f400de02000028
:020000040000fa
:0400f800de02000024
:020000040000fa
:0400fc00de02000020
:020000040000fa
:04010000de0200001b
:020000040000fa
:04010400de02000017
:020000040000fa
:04010800de02000013
:020000040000fa
:04010c00de0200000f
:020000040000fa
:04011000de0200000b
:020000040000fa
:04011400de02000007
:020000040000fa
:04011800de02000003
:020000040000fa
:04011c00de020000ff
:020000040000fa
:04012000de020000fb
:020000040000fa
:04012400de020000f7
:020000040000fa
:04012800de020000f3
:020000040000fa
:04012c00de020000ef
:020000040000fa
:04013000de020000eb
:020000040000fa
:04013400de020000e7
:020000040000fa
:04013800de020000e3
:020000040000fa
:04013c00de020000df
:020000040000fa
:04014000de020000db
:020000040000fa
:04014400de020000d7
:020000040000fa
:04014800de020000d3
:020000040000fa
:04014c00de020000cf
:020000040000fa
:04015000de020000cb
:020000040000fa
:04015400de020000c7
:020000040000fa
:04015800de020000c3
:020000040000fa
:04015c00de020000bf
:020000040000fa
:04016000de020000bb
:020000040000fa
:04016400de020000b7
:020000040000fa
:04016800de020000b3
:020000040000fa
:04016c00de020000af
:020000040000fa
:04017000de020000ab
:020000040000fa
:04017400de020000a7
:020000040000fa
:04017800de020000a3
:020000040000fa
:04017c00de0200009f
:020000040000fa
:04018000de0200009b
:020000040000fa
:04020800de02000012
:020000040000fa
:04020c00de0200000e
:020000040000fa
:04021000de0200000a
:020000040000fa
:04021400de02000006
:020000040000fa
:04021800de02000002
:020000040000fa
:04021c00de020000fe
:020000040000fa
:04022000de020000fa
:020000040000fa
:04022400de020000f6
:020000040000fa
:04022800de020000f2
:020000040000fa
:04022c00de020000ee
:020000040000fa
:04023000de020000ea
:020000040000fa
:04023400de020000e6
:020000040000fa
:04023800de020000e2
:020000040000fa
:04023c00de020000de
:020000040000fa
:04024000de020000da
:020000040000fa
:04024400de020000d6
:020000040000fa
:04024800de020000d2
:020000040000fa
:04024c00de020000ce
:020000040000fa
:04025000de020000ca
:020000040000fa
:04025400de020000c6
:020000040000fa
:04025800de020000c2
:020000040000fa
:04025c00c8020000d4
:020000040000fa
:04026000de020000ba
:020000040000fa
:04026400de020000b6
:020000040000fa
:04026800de020000b2
:020000040000fa
:04026c00de020000ae
:020000040000fa
:04027000de020000aa
:020000040000fa
:04027400de020000a6
:020000040000fa
:04027800de020000a2
:020000040000fa
:04027c00de0200009e
:020000040000fa
:04028000de0200009a
:020000040000fa
:04028400de02000096
:020000040000fa
:04028800de02000092
:020000040000fa
:04028c00de0200008e
:020000040000fa
:04029000de0200008a
:020000040000fa
:04029400de02000086
:020000040000fa
:04029800de02000082
:020000040000fa
:04029c00de0200007e
:020000040000fa
:0402a000de0200007a
:020000040000fa
:0402a400de02000076
:020000040000fa
:0402a800de02000072
:020000040000fa
:0402ac00de0200006e
:020000040000fa
:0402b000de0200006a
:020000040000fa
:0402b400de02000066
:020000040000fa
:0402b800de02000062
:020000040000fa
:0402bc00de0200005e
:020000040000fa
:0402c000de0200005a
:020000040000fa
:0402c400de02000056
:020000040000fa
:0402c800de02000052
:020000040000fa
:0402cc00de0200004e
:020000040000fa
:0402d000de0200004a
:020000040000fa
:0402d400de02000046
:020000040000fa
:0402d800de02000042
:020000040000fa
:0402dc00de0200003e
:020000040000fa
:0402e000de0200003a
:020000040000fa
:0402e400de02000036
:020000040000fa
:0402e800de02000032
:020000040000fa
:0402ec00de0200002e
:020000040000fa
:0402f000de0200002a
:020000040000fa
:0402f400de02000026
:020000040000fa
:0402f800de02000022
:020000040000fa
:0402fc00de0200001e
:020000040000fa
:04030000de02000019
:020000040000fa
:04030400de02000015
:020000040000fa
:04030800de02000011
:020000040000fa
:04030c00de0200000d
:020000040000fa
:04031000de02000009
:020000040000fa
:04031400de02000005
:020000040000fa
:04031800de02000001
:020000040000fa
:04031c00de020000fd
:020000040000fa
:04032000de020000f9
:020000040000fa
:04032400de020000f5
:020000040000fa
:04032800de020000f1
:020000040000fa
:04032c00de020000ed
:020000040000fa
:04033000de020000e9
:020000040000fa
:04033400de020000e5
:020000040000fa
:04033800de020000e1
:020000040000fa
:04033c00de020000dd
:020000040000fa
:04034000de020000d9
:020000040000fa
:04034400de020000d5
:020000040000fa
:04034800de020000d1
:020000040000fa
:04034c00de020000cd
:020000040000fa
:04035000de020000c9
:020000040000fa
:04035400de020000c5
:020000040000fa
:04035800de020000c1
:020000040000fa
:04035c00de020000bd
:020000040000fa
:04036000de020000b9
:020000040000fa
:04036400de020000b5
:020000040000fa
:04036800de020000b1
:020000040000fa
:04036c00de020000ad
:020000040000fa
:04037000de020000a9
:020000040000fa
:04037400de020000a5
:020000040000fa
:04037800de020000a1
:020000040000fa
:04037c00de0200009d
:020000040000fa
:04038000de02000099
:020000040000fa
:100400002f8020000e7f22000e01880000000000d7
:10041000000020000000e000020032000001200087
:100420002002880014000700660007000000e000ba
:1004300003003a00407c2000010020000200370049
:100440000000200001002000810f70000100320038
:1004500014000700000020000000e000020032004d
:100460000000020000000000ec0502000000000097
:100470000040da000000fe004440a9000000200017
:100480000000e0000300320000002000a00188000e
:100490004440a800000006008a1f78008b1f7800e7
:1004a0000000060091018800800478000000eb0045
:1004b0001a003700e284440032a0b4009905ba0063
:1004c000e284440032a0b4009906ba00e2844400f9
:1004d00032a0b4000006eb00476fde00fd07b2005b
:1004e000636ce10003003a00ebff07000000eb0043
:1004f0000a003700606ce10004003a00005deb0088
:100500008b05e900fdff3e00040037006168e10053
:10051000010032000086eb000b00070019c7ba008b
:100520001905ba000e04e00003003a000a00e000da
:10053000e0ff3a0000000600fe07b2009e018800be
:100540008a047800f5ff3700395dba008b05e900b1
:100550000c003200295dba008b05e900080032006a
:100560000c00e00003003a00e284440032a0b40032
:10057000f5ff370019ddba008b05e900faff3a00f4
:100580008904e800e184440032a0b40000000600c1
:10059000801f78000000fa0095a0a90085a0a9009e
:1005a000001880000040880095a0a80085a0a90040
:1005b0000080fa004f007800004006000040da009a
:1005c0000000fe000000050003f0a200889fbe00ae
:1005d0008a9fbe008c1f7800f4000700fb003300e8
:1005e0006450e1004f0032006420e100520032000c
:1005f00003826c0007003b000905d0000306d00011
:10060000820f54000c065d00020039000200320027
:1006100089017800030678008582550004003d00ba
:100620000003fd008103fd008502ea008b85420086
:10063000840f720002003b0060001000e080180090
:100640006011b8000005eb007a28e1000a003900cb
:1006500006007800c75ddd00f707b20087807500ef
:100660002d003700828171000a0178006105600069
:100670008180d1000080d3008502e900f9ff3b00b2
:10068000060440008784480002003b006004140018
:10069000e0841c000988a300070032008a817100f1
:1006a00082817100610164008904d1000884d30053
:1006b0008b05e800170037000978a30013003a0003
:1006c0000b00e000130034008b05e900080444002f
:1006d00089844c000a4474000978a3000d003a0094
:1006e0000b00e000070034008b05e900080444001b
:1006f00089844c0001003a000b0020000978a30017
:10070000f7ff32000001eb00020037008281710028
:100710000a0178006a0007000cf0a70001f0a000b1
:10072000b30037006420e10002003a00838f6c00c0
:10073000b30033000801be000200be00ac00370069
:10074000889fbe008a9fbe008c1f7800970007001c
:100750009e00330003866c006450e1002e003200de
:100760006420e100330032006150e1002f003200cc
:100770006120e1003100320085855500eb07b000b3
:100780000900200008042000050037000804440088
:1007900089844c000a0031000603430087834b0024
:1007a0000001530081815b00f8ff33000203be00ab
:1007b0000800a0000804440089844c00f6ff3900ba
:1007c000c639dd00830173000100320013002000f0
:1007d0008904d1000884d3000998a30005003200e1
:1007e0000800a7000300a0008904d1000884d300fa
:1007f0008b05e8008904d1000884d3000001eb00d8
:100800000281d2002e00070001f0a1000cf0a70029
:1008100001f0a000760037006420e100780032008b
:100820000801be000200be00f7ff37006120e100b2
:10083000730032006000b800f3ff370000002000b2
:1008400001f82700f0ff37000001be00420007005a
:100850000470a70003f0a10003f8a30013003a00fe
:100860006509b10010003200090035006928e10077
:1008700002003500010028000000050000004000d3
:10088000818048008502e900fcff3a000000060074
:10089000f88f4200050035008100d1000080d300b0
:1008a0008502e800fcff3a00000006008000eb0033
:1008b000000005004f89de008201780087003700c4
:1008c00081002000618055000b003d000b002000de
:1008d00061fe2f000100e1001d00340082817100e3
:1008e000610164008904d1000884d3000000e8009d
:1008f000faff3a00710020006100640003007000fc
:10090000020060000900320061044400e0844c00f1
:100910000988a500050032008b05e8006808e100a1
:1009200002003a008904d1000884d300f20f2000ad
:100930000258e10005003d00c75ddd00f907b20087
:100940008980750008007800000006000bf8270079
:100950008b00780000000500c70ade00f107b20036
:10096000f50fb20008003200e1cf42000200320071
:100970000170a00024000500810f7000010032000a
:100980000408050044000500810f700002003a00d1
:10099000140005008502e9000000400081c0480005
:1009a000fcff3b000170a000240005000004be0015
:1009b000e9ff07000003be000405be000200be0000
:1009c000e5ff0700844f7500000006000200be002e
:1009d0006450e100050036006420e10002003600aa
:1009e0000968a30001003a000800be000160a000f1
:1009f0004f0678004f05be004f04be000000060001
:100a0000f0ff2f00f1ff2700f9ff3700889fbe009d
:100a10008a9fbe008c1f7800e4ff0700ebff3300c5
:100a200003866c006450e100240032006420e10081
:100a3000270032006150e100220032006120e10015
:100a4000210032008b854200eb07b1000134b80071
:100a5000003ab8000804420089844a00013ab8000c
:100a60000030b8008880400009014a0004003300cb
:100a70000000400081804800020149008b05e90028
:100a8000c909dd008301700001003200130020005d
:100a9000c814de004814dd004709de001200b20071
:100aa000c808de000884700085ff070001f0a1007f
:100ab0000cf0a70001f0a000cdff37006120e1009d
:100ac000cfff32000801be000200be00f7ff370072
:100ad0006150e100fcff3a00c9ff3700881f780031
:100ae000030478000300e00007003d0060001000f0
:100af000e080180060011900e081190002003b004d
:100b000001f02d00030037000400070008f0a700e3
:100b100001f0a0004f04780000000600889fbe008e
:100b20008a9fbe000082700004027100048271007e
:100b3000260032000004be000200be006011b800b2
:100b40006b092000950220000182cf000a003900c5
:100b50000541b1000082cf00070039000541b10016
:100b60000982cf00040039000541b1000882cf009e
:100b7000010039000541b100054252001200320067
:100b80000a003b0082817100610164008100d10094
:100b90000080d3008984d3000884d3008b05e8004b
:100ba0000442e800f7ff3a00070037000804440059
:100bb00089844c0000004800818048008b05e900d2
:100bc0000442e900f9ff3a003dff07004f05be006f
:080bd0004f04be000000060006
:020000040000fa
:100bd8000000fa00f0df2f0060198800400e2200a4
:100be800001988002223ef00102020002019880017
:100bf80090002000401988003023ef00c022ef0049
:100c080000ff2f0040168800cc22ef000003800070
:100c18000020a0000003880095a0a80085a0a900d6
:100c280021e3a800e0ff2f00601688000040800044
:100c3800cf80de001dff070002002c00f3472400d0
:100c4800bdfe070002002800a34624006dff070030
:100c58000200200003002400b7fe07000200200065
:100c6800831f240057fe07000240220043a72400e8
:100c780064ff070002002000a3472400aefe07001f
:100c8800effe0700b00007000080eb006016880048
:100c980000408000cf80de0004ff070002002c0027
:100ca800f3472400a4fe070002002800a3462400fe
:100cb80054ff070002002000030024009efe0700e6
:100cc80002002000831f24003efe0700024022008d
:100cd80043a724004bff070002002000a34724007d
:100ce80095fe0700d6fe070097000700d0ff2f00eb
:100cf8006016880000408000cf80de00ebfe070011
:100d080002002c00f34724008bfe07000200280095
:100d1800a34624003bff0700020020000300240034
:100d280085fe070002002000831f240025fe07001f
:100d38000240220043a7240032ff070002002000df
:100d4800a34724007cfe0700bdfe07007e000700c5
:100d58000080eb006016880000408000cf80de0035
:100d6800d2fe070002002c00f347240072fe0700a1
:100d780002002800a346240022ff070002002000ea
:100d8800030024006cfe070002002000831f2400db
:100d98000cfe07000240220043a7240019ff0700a9
:100da80002002000a347240063fe0700a4fe0700fa
:100db80065000700b0ff2f00601688000040800023
:100dc800cf80de00b9fe070002002c00f3472400a4
:100dd80059fe070002002800a346240009ff070067
:100de800020020000300240053fe07000200200038
:100df800831f2400f3fd07000240220043a72400bc
:100e080000ff070002002000a34724004afe070055
:100e18008bfe07004c0007000080eb00601688007e
:100e280000408000cf80de00a0fe070002002c00fa
:100e3800f347240040fe070002002800a3462400d0
:100e4800f0fe070002002000030024003afe07001d
:100e580002002000831f2400dafd07000240220060
:100e680043a72400e7fe070002002000a347240050
:100e780031fe070072fe07003300070070ff2f00e5
:100e88006016880000408000cf80de0087fe0700e3
:100e980002002c00f347240027fe07000200280068
:100ea800a3462400d7fe0700020020000300240008
:100eb80021fe070002002000831f2400c1fd070057
:100ec8000240220043a72400cefe070002002000b3
:100ed800a347240018fe070059fe07001a00070060
:100ee8000080eb006016880000408000cf80de00a4
:100ef8006efe070002002c00f34724000efe0700d8
:100f080002002800a3462400befe070002002000bd
:100f18000300240008fe070002002000831f2400ad
:100f2800a8fd07000240220043a72400b5fe0700e1
:100f380002002000a3472400fffd070040fe070031
:080f48000100070037ff37002c
:020000040000fa
:100f5000f03fb1000180b10006003500ee0309004a
:100f600000000000403fb1000180b100fbff3d00e8
:100f70001000b000203fb0000200350000800900e2
:080f8000000000000000060063
:020000040000fa
:100f8800000800000200000000000000000000004f
:020000040000fa
:020000040001f9
:0457f400fffc0000b6
:020000040000fa
:020000040001f9
:0457f8009f8100008d
:020000040000fa
:020000040001f9
:0457fc007f3f0000eb
:00000001FF
